{
  "contractName": "BuyItem",
  "abi": [
    {
      "constant": true,
      "inputs": [
        {
          "name": "",
          "type": "uint256"
        }
      ],
      "name": "itemByID",
      "outputs": [
        {
          "name": "itemID",
          "type": "uint256"
        },
        {
          "name": "itemName",
          "type": "string"
        },
        {
          "name": "itemDescription",
          "type": "string"
        },
        {
          "name": "itemPicLoc",
          "type": "string"
        },
        {
          "name": "itemPrice",
          "type": "uint256"
        },
        {
          "name": "itemAvailiable",
          "type": "uint256"
        }
      ],
      "payable": false,
      "stateMutability": "view",
      "type": "function"
    },
    {
      "inputs": [],
      "payable": false,
      "stateMutability": "nonpayable",
      "type": "constructor"
    },
    {
      "constant": false,
      "inputs": [
        {
          "name": "id",
          "type": "uint256"
        },
        {
          "name": "quantity",
          "type": "uint256"
        }
      ],
      "name": "buy",
      "outputs": [
        {
          "name": "",
          "type": "uint256"
        }
      ],
      "payable": true,
      "stateMutability": "payable",
      "type": "function"
    },
    {
      "constant": true,
      "inputs": [],
      "name": "getItemIDList",
      "outputs": [
        {
          "name": "",
          "type": "uint256[]"
        }
      ],
      "payable": false,
      "stateMutability": "view",
      "type": "function"
    },
    {
      "constant": true,
      "inputs": [
        {
          "name": "_itemID",
          "type": "uint256"
        }
      ],
      "name": "getItemData",
      "outputs": [
        {
          "name": "",
          "type": "uint256"
        },
        {
          "name": "",
          "type": "string"
        },
        {
          "name": "",
          "type": "string"
        },
        {
          "name": "",
          "type": "string"
        },
        {
          "name": "",
          "type": "uint256"
        },
        {
          "name": "",
          "type": "uint256"
        }
      ],
      "payable": false,
      "stateMutability": "view",
      "type": "function"
    },
    {
      "constant": true,
      "inputs": [
        {
          "name": "id",
          "type": "uint256"
        }
      ],
      "name": "checkValidItem",
      "outputs": [
        {
          "name": "",
          "type": "bool"
        }
      ],
      "payable": false,
      "stateMutability": "view",
      "type": "function"
    }
  ],
  "bytecode": "0x606060405234156200001057600080fd5b6000806000600260006004811015156200002657fe5b60060201600001819055506040805190810160405280600981526020017f426c61636b204261670000000000000000000000000000000000000000000000815250600260006004811015156200007857fe5b600602016001019080519060200190620000949291906200076c565b506040805190810160405280601781526020017f696d616765732f626c61636b68616e646261672e6a706700000000000000000081525060026000600481101515620000dc57fe5b600602016003019080519060200190620000f89291906200076c565b506040805190810160405280600981526020017f426c61636b204261670000000000000000000000000000000000000000000000815250600260006004811015156200014057fe5b6006020160020190805190602001906200015c9291906200076c565b506014600260006004811015156200017057fe5b60060201600401819055506003600260006004811015156200018e57fe5b6006020160050181905550600160026001600481101515620001ac57fe5b60060201600001819055506040805190810160405280600d81526020017f426c61636b2048616e646261670000000000000000000000000000000000000081525060026001600481101515620001fe57fe5b6006020160010190805190602001906200021a9291906200076c565b506040805190810160405280601781526020017f696d616765732f62726f776e68616e646261672e6a7067000000000000000000815250600260016004811015156200026257fe5b6006020160030190805190602001906200027e9291906200076c565b506040805190810160405280600d81526020017f426c61636b2048616e646261670000000000000000000000000000000000000081525060026001600481101515620002c657fe5b600602016002019080519060200190620002e29291906200076c565b50601e60026001600481101515620002f657fe5b60060201600401819055506007600260016004811015156200031457fe5b600602016005018190555060028060026004811015156200033157fe5b60060201600001819055506040805190810160405280600881526020017f526f636b7361636b0000000000000000000000000000000000000000000000008152506002806004811015156200038257fe5b6006020160010190805190602001906200039e9291906200076c565b506040805190810160405280601381526020017f696d616765732f726f636b7361636b2e6a706700000000000000000000000000815250600280600481101515620003e557fe5b600602016003019080519060200190620004019291906200076c565b506040805190810160405280600881526020017f526f636b7361636b0000000000000000000000000000000000000000000000008152506002806004811015156200044857fe5b600602016002019080519060200190620004649291906200076c565b5060146002806004811015156200047757fe5b600602016004018190555060046002806004811015156200049457fe5b6006020160050181905550600360026003600481101515620004b257fe5b60060201600001819055506040805190810160405280600981526020017f426c61636b204261670000000000000000000000000000000000000000000000815250600260036004811015156200050457fe5b600602016001019080519060200190620005209291906200076c565b506040805190810160405280601381526020017f696d616765732f626c61636b6261672e6a706700000000000000000000000000815250600260036004811015156200056857fe5b600602016003019080519060200190620005849291906200076c565b506040805190810160405280600981526020017f426c61636b20426167000000000000000000000000000000000000000000000081525060026003600481101515620005cc57fe5b600602016002019080519060200190620005e89291906200076c565b50600f60026003600481101515620005fc57fe5b60060201600401819055506005600260036004811015156200061a57fe5b600602016005018190555060049150600090505b818110156200076457600080548060010182816200064d9190620007f3565b916000526020600020900160006002846004811015156200066a57fe5b6006020160000154909190915055506002816004811015156200068957fe5b6006020160016000600284600481101515620006a157fe5b600602016000015481526020019081526020016000206000820154816000015560018201816001019080546001816001161561010002031660029004620006ea92919062000822565b50600282018160020190805460018160011615610100020316600290046200071492919062000822565b50600382018160030190805460018160011615610100020316600290046200073e92919062000822565b50600482015481600401556005820154816005015590505080806001019150506200062e565b5050620008d8565b828054600181600116156101000203166002900490600052602060002090601f016020900481019282601f10620007af57805160ff1916838001178555620007e0565b82800160010185558215620007e0579182015b82811115620007df578251825591602001919060010190620007c2565b5b509050620007ef9190620008b0565b5090565b8154818355818115116200081d578183600052602060002091820191016200081c9190620008b0565b5b505050565b828054600181600116156101000203166002900490600052602060002090601f016020900481019282601f106200085d57805485556200089d565b828001600101855582156200089d57600052602060002091601f016020900482015b828111156200089c5782548255916001019190600101906200087f565b5b509050620008ac9190620008b0565b5090565b620008d591905b80821115620008d1576000816000905550600101620008b7565b5090565b90565b61090380620008e86000396000f30060606040526004361061006d576000357c0100000000000000000000000000000000000000000000000000000000900463ffffffff168063116469fa1461007257806326b07169146102525780638bc6976e1461028d578063bc58ce3b14610416578063d6febde814610480575b600080fd5b341561007d57600080fd5b61009360048080359060200190919050506104b5565b604051808781526020018060200180602001806020018681526020018581526020018481038452898181546001816001161561010002031660029004815260200191508054600181600116156101000203166002900480156101365780601f1061010b57610100808354040283529160200191610136565b820191906000526020600020905b81548152906001019060200180831161011957829003601f168201915b50508481038352888181546001816001161561010002031660029004815260200191508054600181600116156101000203166002900480156101b95780601f1061018e576101008083540402835291602001916101b9565b820191906000526020600020905b81548152906001019060200180831161019c57829003601f168201915b505084810382528781815460018160011615610100020316600290048152602001915080546001816001161561010002031660029004801561023c5780601f106102115761010080835404028352916020019161023c565b820191906000526020600020905b81548152906001019060200180831161021f57829003601f168201915b5050995050505050505050505060405180910390f35b341561025d57600080fd5b61027360048080359060200190919050506104ee565b604051808215151515815260200191505060405180910390f35b341561029857600080fd5b6102ae6004808035906020019091905050610546565b60405180878152602001806020018060200180602001868152602001858152602001848103845289818151815260200191508051906020019080838360005b838110156103085780820151818401526020810190506102ed565b50505050905090810190601f1680156103355780820380516001836020036101000a031916815260200191505b50848103835288818151815260200191508051906020019080838360005b8381101561036e578082015181840152602081019050610353565b50505050905090810190601f16801561039b5780820380516001836020036101000a031916815260200191505b50848103825287818151815260200191508051906020019080838360005b838110156103d45780820151818401526020810190506103b9565b50505050905090810190601f1680156104015780820380516001836020036101000a031916815260200191505b50995050505050505050505060405180910390f35b341561042157600080fd5b6104296107d3565b6040518080602001828103825283818151815260200191508051906020019060200280838360005b8381101561046c578082015181840152602081019050610451565b505050509050019250505060405180910390f35b61049f6004808035906020019091908035906020019091905050610831565b6040518082815260200191505060405180910390f35b60016020528060005260406000206000915090508060000154908060010190806002019080600301908060040154908060050154905086565b600080600090505b60008054905081101561053b578260008281548110151561051357fe5b906000526020600020900154141561052e5760019150610540565b80806001019150506104f6565b600091505b50919050565b60006105506108af565b6105586108af565b6105606108af565b600080600160008881526020019081526020016000206000015460016000898152602001908152602001600020600101600160008a8152602001908152602001600020600301600160008b8152602001908152602001600020600201600160008c815260200190815260200160002060040154600160008d815260200190815260200160002060050154848054600181600116156101000203166002900480601f01602080910402602001604051908101604052809291908181526020018280546001816001161561010002031660029004801561067f5780601f106106545761010080835404028352916020019161067f565b820191906000526020600020905b81548152906001019060200180831161066257829003601f168201915b50505050509450838054600181600116156101000203166002900480601f01602080910402602001604051908101604052809291908181526020018280546001816001161561010002031660029004801561071b5780601f106106f05761010080835404028352916020019161071b565b820191906000526020600020905b8154815290600101906020018083116106fe57829003601f168201915b50505050509350828054600181600116156101000203166002900480601f0160208091040260200160405190810160405280929190818152602001828054600181600116156101000203166002900480156107b75780601f1061078c576101008083540402835291602001916107b7565b820191906000526020600020905b81548152906001019060200180831161079a57829003601f168201915b5050505050925095509550955095509550955091939550919395565b6107db6108c3565b600080548060200260200160405190810160405280929190818152602001828054801561082757602002820191906000526020600020905b815481526020019060010190808311610813575b5050505050905090565b600061083c836104ee565b151561084757600080fd5b8160016000858152602001908152602001600020600501541015151561086c57600080fd5b8160016000858152602001908152602001600020600501600082825403925050819055506001600084815260200190815260200160002060050154905092915050565b602060405190810160405280600081525090565b6020604051908101604052806000815250905600a165627a7a72305820c584d411a45cf1ab5ca5943924163ccd06c7616113db887f24732047aa54884b0029",
  "source": "pragma solidity ^0.4.17;\n\ncontract BuyItem {\nstruct Item\n{\n  uint itemID;\n  string itemName;\n  string itemDescription;\n  string itemPicLoc;\n  uint itemPrice;\n  uint itemAvailiable;\n}\n// variables\nuint[] itemId;\nmapping(uint => Item) public itemByID; //id -> item\n\nItem[4] items;\n\n\nfunction BuyItem() public\n{\n  items[0].itemID=0;\n  items[0].itemName=\"Black Bag\";\n  items[0].itemPicLoc=\"images/blackhandbag.jpg\";\n  items[0].itemDescription = \"Black Bag\";\n  items[0].itemPrice = 20;\n  items[0].itemAvailiable =3;\n\n  items[1].itemID=1;\n  items[1].itemName=\"Black Handbag\";\n  items[1].itemPicLoc=\"images/brownhandbag.jpg\";\n  items[1].itemDescription = \"Black Handbag\";\n  items[1].itemPrice = 30;\n  items[1].itemAvailiable =7;\n\n  items[2].itemID=2;\n  items[2].itemName=\"Rocksack\";\n  items[2].itemPicLoc=\"images/rocksack.jpg\";\n  items[2].itemDescription = \"Rocksack\";\n  items[2].itemPrice = 20;\n  items[2].itemAvailiable =4;\n\n  items[3].itemID=3;\n  items[3].itemName=\"Black Bag\";\n  items[3].itemPicLoc=\"images/blackbag.jpg\";\n  items[3].itemDescription = \"Black Bag\";\n  items[3].itemPrice = 15;\n  items[3].itemAvailiable =5;\n\n  uint arrayLength = items.length;\n\n  for(uint i = 0; i < arrayLength;i++)\n  {\n    itemId.push(items[i].itemID);\n    itemByID[items[i].itemID]=items[i];\n  }\n}\n\nfunction buy(uint id,uint quantity) payable public returns (uint)\n{\n\n  require(checkValidItem(id));\n  require(itemByID[id].itemAvailiable >= quantity);\n\n  itemByID[id].itemAvailiable -= quantity;\n  return itemByID[id].itemAvailiable;\n\n\n}\nfunction getItemIDList() view public returns (uint[])\n{\n  return itemId;\n}\n\nfunction getItemData(uint _itemID) view public returns (uint, string, string, string, uint, uint)\n{\n  return (itemByID[_itemID].itemID, itemByID[_itemID].itemName, itemByID[_itemID].itemPicLoc,itemByID[_itemID].itemDescription,itemByID[_itemID].itemPrice,itemByID[_itemID].itemAvailiable);\n}\n\n\nfunction checkValidItem(uint id) view public returns(bool)\n{\n  for (uint i = 0; i < itemId.length;i++)\n  {\n    if(itemId[i] == id)\n    {\n      return true;\n    }\n  }\n  return false;\n}\n\n}\n",
  "sourcePath": "C:\\Users\\Chung\\Desktop\\New folder\\trunk\\contracts\\BuyItem.sol",
  "compiler": {
    "name": "solc",
    "version": "0.4.19+commit.c4cbbb05.Emscripten.clang"
  },
  "schemaVersion": "2.0.0",
  "updatedAt": "2018-03-31T12:04:31.552Z"
}