{
  "contractName": "BuyItem",
  "abi": [
    {
      "constant": true,
      "inputs": [
        {
          "name": "",
          "type": "uint256"
        }
      ],
      "name": "itemAvailiable",
      "outputs": [
        {
          "name": "",
          "type": "uint256"
        }
      ],
      "payable": false,
      "stateMutability": "view",
      "type": "function"
    },
    {
      "constant": true,
      "inputs": [
        {
          "name": "",
          "type": "uint256"
        }
      ],
      "name": "itemPrice",
      "outputs": [
        {
          "name": "",
          "type": "uint256"
        }
      ],
      "payable": false,
      "stateMutability": "view",
      "type": "function"
    },
    {
      "constant": false,
      "inputs": [
        {
          "name": "_itemId",
          "type": "uint256[]"
        },
        {
          "name": "_itemPrice",
          "type": "uint256[]"
        },
        {
          "name": "_itemAvailable",
          "type": "uint256[]"
        }
      ],
      "name": "initItem",
      "outputs": [],
      "payable": false,
      "stateMutability": "nonpayable",
      "type": "function"
    },
    {
      "constant": false,
      "inputs": [
        {
          "name": "id",
          "type": "uint256"
        },
        {
          "name": "quantity",
          "type": "uint256"
        }
      ],
      "name": "buy",
      "outputs": [
        {
          "name": "",
          "type": "uint256"
        }
      ],
      "payable": false,
      "stateMutability": "nonpayable",
      "type": "function"
    },
    {
      "constant": true,
      "inputs": [
        {
          "name": "id",
          "type": "uint256"
        }
      ],
      "name": "getItemAvailable",
      "outputs": [
        {
          "name": "",
          "type": "uint256"
        }
      ],
      "payable": false,
      "stateMutability": "view",
      "type": "function"
    },
    {
      "constant": true,
      "inputs": [
        {
          "name": "id",
          "type": "uint256"
        }
      ],
      "name": "checkValidItem",
      "outputs": [
        {
          "name": "",
          "type": "bool"
        }
      ],
      "payable": false,
      "stateMutability": "view",
      "type": "function"
    }
  ],
  "bytecode": "0x6060604052341561000f57600080fd5b6104fc8061001e6000396000f300606060405260043610610078576000357c0100000000000000000000000000000000000000000000000000000000900463ffffffff1680630c4cb9731461007d57806326b07169146100b4578063adcb005c146100ef578063d06ca27714610126578063d6febde814610200578063f738c2b114610240575b600080fd5b341561008857600080fd5b61009e6004808035906020019091905050610277565b6040518082815260200191505060405180910390f35b34156100bf57600080fd5b6100d5600480803590602001909190505061028f565b604051808215151515815260200191505060405180910390f35b34156100fa57600080fd5b61011060048080359060200190919050506102e7565b6040518082815260200191505060405180910390f35b341561013157600080fd5b6101fe60048080359060200190820180359060200190808060200260200160405190810160405280939291908181526020018383602002808284378201915050505050509190803590602001908201803590602001908080602002602001604051908101604052809392919081815260200183836020028082843782019150505050505091908035906020019082018035906020019080806020026020016040519081016040528093929190818152602001838360200280828437820191505050505050919050506102ff565b005b341561020b57600080fd5b61022a60048080359060200190919080359060200190919050506103c9565b6040518082815260200191505060405180910390f35b341561024b57600080fd5b6102616004808035906020019091905050610441565b6040518082815260200191505060405180910390f35b60026020528060005260406000206000915090505481565b600080600090505b6000805490508110156102dc57826000828154811015156102b457fe5b90600052602060002090015414156102cf57600191506102e1565b8080600101915050610297565b600091505b50919050565b60016020528060005260406000206000915090505481565b6000836000908051906020019061031792919061045e565b50600090505b6000805490508110156103c357828181518110151561033857fe5b9060200190602002015160016000868481518110151561035457fe5b90602001906020020151815260200190815260200160002081905550818181518110151561037e57fe5b9060200190602002015160026000868481518110151561039a57fe5b90602001906020020151815260200190815260200160002081905550808060010191505061031d565b50505050565b60006103d48361028f565b15156103df57600080fd5b8160026000858152602001908152602001600020541015610403576000905061043b565b816002600085815260200190815260200160002060008282540392505081905550600260008481526020019081526020016000205490505b92915050565b600060026000838152602001908152602001600020549050919050565b82805482825590600052602060002090810192821561049a579160200282015b8281111561049957825182559160200191906001019061047e565b5b5090506104a791906104ab565b5090565b6104cd91905b808211156104c95760008160009055506001016104b1565b5090565b905600a165627a7a72305820091f5d80d42f1dd95f2aab2984a6912ce98ce4c1daa59d6d76f0895e51dfb8d70029",
  "source": "pragma solidity ^0.4.17;\n\ncontract BuyItem {\n\n// variables\nuint[] itemId;\nmapping(uint => uint) public itemPrice;\nmapping(uint => uint) public itemAvailiable;\n\n\nfunction initItem(uint[] _itemId, uint[] _itemPrice, uint[] _itemAvailable) public\n{\n  itemId = _itemId;\n\n  for(uint i = 0; i < itemId.length;i++)\n  {\n    itemPrice[_itemId[i]]= _itemPrice[i];\n    itemAvailiable[_itemId[i]] = _itemAvailable[i];\n  }\n}\n\nfunction buy(uint id,uint quantity) public returns (uint) \n{\n\n  require(checkValidItem(id));\n\n  if(itemAvailiable[id] < quantity)\n  {\n    return 0;\n  }\n  itemAvailiable[id] -= quantity;\n  return itemAvailiable[id];\n\n\n}\n\nfunction getItemAvailable(uint id) view public returns (uint) \n{\n  return itemAvailiable[id];\n}\n\nfunction checkValidItem(uint id) view public returns(bool)\n{\n  for(uint i = 0; i < itemId.length;i++)\n  {\n    if(itemId[i] == id)\n    {\n      return true;\n    }\n  }\n  return false;\n}\n\n// Retrieving the adopters\n//function getBuyers() public view returns (address[16]) {\n//  return buyers;\n//}\n\n}\n\n",
  "sourcePath": "C:\\Users\\Chung\\Desktop\\my-shop\\trunk\\contracts\\BuyItem.sol",
  "compiler": {
    "name": "solc",
    "version": "0.4.19+commit.c4cbbb05.Emscripten.clang"
  },
  "schemaVersion": "2.0.0",
  "updatedAt": "2018-03-07T16:25:39.741Z"
}