{
  "contractName": "BuyItem",
  "abi": [
    {
      "constant": true,
      "inputs": [
        {
          "name": "",
          "type": "uint256"
        }
      ],
      "name": "itemAvailiable",
      "outputs": [
        {
          "name": "",
          "type": "uint256"
        }
      ],
      "payable": false,
      "stateMutability": "view",
      "type": "function"
    },
    {
      "constant": true,
      "inputs": [
        {
          "name": "",
          "type": "uint256"
        }
      ],
      "name": "itemPrice",
      "outputs": [
        {
          "name": "",
          "type": "uint256"
        }
      ],
      "payable": false,
      "stateMutability": "view",
      "type": "function"
    },
    {
      "constant": false,
      "inputs": [
        {
          "name": "_itemId",
          "type": "uint256[]"
        },
        {
          "name": "_itemPrice",
          "type": "uint256[]"
        },
        {
          "name": "_itemAvailable",
          "type": "uint256[]"
        }
      ],
      "name": "initItem",
      "outputs": [],
      "payable": false,
      "stateMutability": "nonpayable",
      "type": "function"
    },
    {
      "constant": false,
      "inputs": [
        {
          "name": "id",
          "type": "uint256"
        },
        {
          "name": "quantity",
          "type": "uint256"
        }
      ],
      "name": "buy",
      "outputs": [
        {
          "name": "",
          "type": "uint256"
        }
      ],
      "payable": false,
      "stateMutability": "nonpayable",
      "type": "function"
    },
    {
      "constant": true,
      "inputs": [
        {
          "name": "id",
          "type": "uint256"
        }
      ],
      "name": "checkValidItem",
      "outputs": [
        {
          "name": "",
          "type": "bool"
        }
      ],
      "payable": false,
      "stateMutability": "view",
      "type": "function"
    }
  ],
  "bytecode": "0x6060604052341561000f57600080fd5b61049d8061001e6000396000f30060606040526004361061006d576000357c0100000000000000000000000000000000000000000000000000000000900463ffffffff1680630c4cb9731461007257806326b07169146100a9578063adcb005c146100e4578063d06ca2771461011b578063d6febde8146101f5575b600080fd5b341561007d57600080fd5b6100936004808035906020019091905050610235565b6040518082815260200191505060405180910390f35b34156100b457600080fd5b6100ca600480803590602001909190505061024d565b604051808215151515815260200191505060405180910390f35b34156100ef57600080fd5b61010560048080359060200190919050506102a5565b6040518082815260200191505060405180910390f35b341561012657600080fd5b6101f360048080359060200190820180359060200190808060200260200160405190810160405280939291908181526020018383602002808284378201915050505050509190803590602001908201803590602001908080602002602001604051908101604052809392919081815260200183836020028082843782019150505050505091908035906020019082018035906020019080806020026020016040519081016040528093929190818152602001838360200280828437820191505050505050919050506102bd565b005b341561020057600080fd5b61021f6004808035906020019091908035906020019091905050610387565b6040518082815260200191505060405180910390f35b60026020528060005260406000206000915090505481565b600080600090505b60008054905081101561029a578260008281548110151561027257fe5b906000526020600020900154141561028d576001915061029f565b8080600101915050610255565b600091505b50919050565b60016020528060005260406000206000915090505481565b600083600090805190602001906102d59291906103ff565b50600090505b6000805490508110156103815782818151811015156102f657fe5b9060200190602002015160016000868481518110151561031257fe5b90602001906020020151815260200190815260200160002081905550818181518110151561033c57fe5b9060200190602002015160026000868481518110151561035857fe5b9060200190602002015181526020019081526020016000208190555080806001019150506102db565b50505050565b60006103928361024d565b151561039d57600080fd5b81600260008581526020019081526020016000205410156103c157600090506103f9565b816002600085815260200190815260200160002060008282540392505081905550600260008481526020019081526020016000205490505b92915050565b82805482825590600052602060002090810192821561043b579160200282015b8281111561043a57825182559160200191906001019061041f565b5b509050610448919061044c565b5090565b61046e91905b8082111561046a576000816000905550600101610452565b5090565b905600a165627a7a72305820b4aee50a93b6e673cee779a242e56b23ab2a0c7d5545ac936409a44f8f97ba4f0029",
  "source": "pragma solidity ^0.4.17;\n\ncontract BuyItem {\n\n// variables\nuint[] itemId;\nmapping(uint => uint) public itemPrice;\nmapping(uint => uint) public itemAvailiable;\n\n\nfunction initItem(uint[] _itemId, uint[] _itemPrice, uint[] _itemAvailable) public\n{\n  itemId = _itemId;\n\n  for(uint i = 0; i < itemId.length;i++)\n  {\n    itemPrice[_itemId[i]]= _itemPrice[i];\n    itemAvailiable[_itemId[i]] = _itemAvailable[i];\n  }\n}\n\nfunction buy(uint id,uint quantity) public returns (uint) \n{\n\n  require(checkValidItem(id));\n\n  if(itemAvailiable[id] < quantity)\n  {\n    return 0;\n  }\n  itemAvailiable[id] -= quantity;\n  return itemAvailiable[id];\n\n\n}\n\nfunction checkValidItem(uint id) view public returns(bool)\n{\n  for(uint i = 0; i < itemId.length;i++)\n  {\n    if(itemId[i] == id)\n    {\n      return true;\n    }\n  }\n  return false;\n}\n\n// Retrieving the adopters\n//function getBuyers() public view returns (address[16]) {\n//  return buyers;\n//}\n\n}\n\n",
  "sourcePath": "/home/chung/Desktop/my-shop/contracts/BuyItem.sol",
  "compiler": {
    "name": "solc",
    "version": "0.4.19+commit.c4cbbb05.Emscripten.clang"
  },
  "schemaVersion": "2.0.0",
  "updatedAt": "2018-03-06T08:17:40.684Z"
}